{
    "_format": "hh-sol-artifact-1",
    "contractName": "BettingEvents",
    "sourceName": "contracts/BettingEvents.sol",
    "abi": [
        {
            "inputs": [],
            "stateMutability": "nonpayable",
            "type": "constructor"
        },
        {
            "inputs": [
                {
                    "internalType": "address",
                    "name": "owner",
                    "type": "address"
                }
            ],
            "name": "OwnableInvalidOwner",
            "type": "error"
        },
        {
            "inputs": [
                {
                    "internalType": "address",
                    "name": "account",
                    "type": "address"
                }
            ],
            "name": "OwnableUnauthorizedAccount",
            "type": "error"
        },
        {
            "anonymous": false,
            "inputs": [
                {
                    "indexed": true,
                    "internalType": "uint256",
                    "name": "betId",
                    "type": "uint256"
                },
                {
                    "indexed": true,
                    "internalType": "address",
                    "name": "attestor",
                    "type": "address"
                }
            ],
            "name": "BetAttested",
            "type": "event"
        },
        {
            "anonymous": false,
            "inputs": [
                {
                    "indexed": true,
                    "internalType": "uint256",
                    "name": "betId",
                    "type": "uint256"
                },
                {
                    "indexed": true,
                    "internalType": "address",
                    "name": "bettor",
                    "type": "address"
                }
            ],
            "name": "BetClaimed",
            "type": "event"
        },
        {
            "anonymous": false,
            "inputs": [
                {
                    "indexed": true,
                    "internalType": "uint256",
                    "name": "betId",
                    "type": "uint256"
                },
                {
                    "indexed": true,
                    "internalType": "address",
                    "name": "bettor",
                    "type": "address"
                },
                {
                    "indexed": false,
                    "internalType": "address",
                    "name": "tokenAddress",
                    "type": "address"
                },
                {
                    "indexed": false,
                    "internalType": "uint256",
                    "name": "amount",
                    "type": "uint256"
                },
                {
                    "indexed": false,
                    "internalType": "string",
                    "name": "eventDescription",
                    "type": "string"
                }
            ],
            "name": "BetCreated",
            "type": "event"
        },
        {
            "anonymous": false,
            "inputs": [
                {
                    "indexed": true,
                    "internalType": "address",
                    "name": "previousOwner",
                    "type": "address"
                },
                {
                    "indexed": true,
                    "internalType": "address",
                    "name": "newOwner",
                    "type": "address"
                }
            ],
            "name": "OwnershipTransferred",
            "type": "event"
        },
        {
            "inputs": [
                {
                    "internalType": "uint256",
                    "name": "betId",
                    "type": "uint256"
                }
            ],
            "name": "attestBet",
            "outputs": [],
            "stateMutability": "nonpayable",
            "type": "function"
        },
        {
            "inputs": [
                {
                    "internalType": "uint256",
                    "name": "",
                    "type": "uint256"
                }
            ],
            "name": "bets",
            "outputs": [
                {
                    "internalType": "address",
                    "name": "bettor",
                    "type": "address"
                },
                {
                    "internalType": "address",
                    "name": "tokenAddress",
                    "type": "address"
                },
                {
                    "internalType": "uint256",
                    "name": "amount",
                    "type": "uint256"
                },
                {
                    "internalType": "string",
                    "name": "eventDescription",
                    "type": "string"
                },
                {
                    "internalType": "uint256",
                    "name": "timestamp",
                    "type": "uint256"
                },
                {
                    "internalType": "bool",
                    "name": "isAttested",
                    "type": "bool"
                },
                {
                    "internalType": "bool",
                    "name": "isClaimed",
                    "type": "bool"
                }
            ],
            "stateMutability": "view",
            "type": "function"
        },
        {
            "inputs": [
                {
                    "internalType": "uint256",
                    "name": "betId",
                    "type": "uint256"
                }
            ],
            "name": "claimBet",
            "outputs": [],
            "stateMutability": "nonpayable",
            "type": "function"
        },
        {
            "inputs": [
                {
                    "internalType": "address",
                    "name": "tokenAddress",
                    "type": "address"
                },
                {
                    "internalType": "uint256",
                    "name": "amount",
                    "type": "uint256"
                },
                {
                    "internalType": "string",
                    "name": "eventDescription",
                    "type": "string"
                }
            ],
            "name": "createBet",
            "outputs": [],
            "stateMutability": "nonpayable",
            "type": "function"
        },
        {
            "inputs": [
                {
                    "internalType": "uint256",
                    "name": "betId",
                    "type": "uint256"
                }
            ],
            "name": "getBetDetails",
            "outputs": [
                {
                    "components": [
                        {
                            "internalType": "address",
                            "name": "bettor",
                            "type": "address"
                        },
                        {
                            "internalType": "address",
                            "name": "tokenAddress",
                            "type": "address"
                        },
                        {
                            "internalType": "uint256",
                            "name": "amount",
                            "type": "uint256"
                        },
                        {
                            "internalType": "string",
                            "name": "eventDescription",
                            "type": "string"
                        },
                        {
                            "internalType": "uint256",
                            "name": "timestamp",
                            "type": "uint256"
                        },
                        {
                            "internalType": "bool",
                            "name": "isAttested",
                            "type": "bool"
                        },
                        {
                            "internalType": "bool",
                            "name": "isClaimed",
                            "type": "bool"
                        }
                    ],
                    "internalType": "struct BettingEvents.Bet",
                    "name": "",
                    "type": "tuple"
                }
            ],
            "stateMutability": "view",
            "type": "function"
        },
        {
            "inputs": [
                {
                    "internalType": "address",
                    "name": "bettor",
                    "type": "address"
                }
            ],
            "name": "getBetsByAddress",
            "outputs": [
                {
                    "internalType": "uint256[]",
                    "name": "betIds",
                    "type": "uint256[]"
                }
            ],
            "stateMutability": "view",
            "type": "function"
        },
        {
            "inputs": [],
            "name": "nextBetId",
            "outputs": [
                {
                    "internalType": "uint256",
                    "name": "",
                    "type": "uint256"
                }
            ],
            "stateMutability": "view",
            "type": "function"
        },
        {
            "inputs": [],
            "name": "owner",
            "outputs": [
                {
                    "internalType": "address",
                    "name": "",
                    "type": "address"
                }
            ],
            "stateMutability": "view",
            "type": "function"
        },
        {
            "inputs": [],
            "name": "renounceOwnership",
            "outputs": [],
            "stateMutability": "nonpayable",
            "type": "function"
        },
        {
            "inputs": [
                {
                    "internalType": "address",
                    "name": "newOwner",
                    "type": "address"
                }
            ],
            "name": "transferOwnership",
            "outputs": [],
            "stateMutability": "nonpayable",
            "type": "function"
        }
    ],
    "bytecode": "0x608060405234801561001057600080fd5b5033600073ffffffffffffffffffffffffffffffffffffffff168173ffffffffffffffffffffffffffffffffffffffff16036100845760006040517f1e4fbdf700000000000000000000000000000000000000000000000000000000815260040161007b919061019e565b60405180910390fd5b6100938161009960201b60201c565b506101b9565b60008060009054906101000a900473ffffffffffffffffffffffffffffffffffffffff169050816000806101000a81548173ffffffffffffffffffffffffffffffffffffffff021916908373ffffffffffffffffffffffffffffffffffffffff1602179055508173ffffffffffffffffffffffffffffffffffffffff168173ffffffffffffffffffffffffffffffffffffffff167f8be0079c531659141344cd1fd0a4f28419497f9722a3daafe3b4186f6b6457e060405160405180910390a35050565b600073ffffffffffffffffffffffffffffffffffffffff82169050919050565b60006101888261015d565b9050919050565b6101988161017d565b82525050565b60006020820190506101b3600083018461018f565b92915050565b61221d806101c86000396000f3fe608060405234801561001057600080fd5b506004361061009e5760003560e01c8063735f084111610066578063735f08411461014b5780638da5cb5b1461017b5780639aca279214610199578063b8233eeb146101b7578063f2fde38b146101d35761009e565b806322af00fa146100a35780633df2967e146100d95780634df86c43146101095780635d2b402d14610125578063715018a614610141575b600080fd5b6100bd60048036038101906100b8919061121c565b6101ef565b6040516100d09796959493929190611344565b60405180910390f35b6100f360048036038101906100ee919061121c565b610313565b60405161010091906114cd565b60405180910390f35b610123600480360381019061011e919061121c565b61050c565b005b61013f600480360381019061013a9190611650565b6107d5565b005b610149610c88565b005b610165600480360381019061016091906116bf565b610c9c565b604051610172919061179b565b60405180910390f35b610183610e38565b60405161019091906117bd565b60405180910390f35b6101a1610e61565b6040516101ae91906117d8565b60405180910390f35b6101d160048036038101906101cc919061121c565b610e67565b005b6101ed60048036038101906101e891906116bf565b610f8c565b005b60016020528060005260406000206000915090508060000160009054906101000a900473ffffffffffffffffffffffffffffffffffffffff16908060010160009054906101000a900473ffffffffffffffffffffffffffffffffffffffff169080600201549080600301805461026490611822565b80601f016020809104026020016040519081016040528092919081815260200182805461029090611822565b80156102dd5780601f106102b2576101008083540402835291602001916102dd565b820191906000526020600020905b8154815290600101906020018083116102c057829003601f168201915b5050505050908060040154908060050160009054906101000a900460ff16908060050160019054906101000a900460ff16905087565b61031b611165565b600254821061035f576040517f08c379a00000000000000000000000000000000000000000000000000000000081526004016103569061189f565b60405180910390fd5b600160008381526020019081526020016000206040518060e00160405290816000820160009054906101000a900473ffffffffffffffffffffffffffffffffffffffff1673ffffffffffffffffffffffffffffffffffffffff1673ffffffffffffffffffffffffffffffffffffffff1681526020016001820160009054906101000a900473ffffffffffffffffffffffffffffffffffffffff1673ffffffffffffffffffffffffffffffffffffffff1673ffffffffffffffffffffffffffffffffffffffff1681526020016002820154815260200160038201805461044390611822565b80601f016020809104026020016040519081016040528092919081815260200182805461046f90611822565b80156104bc5780601f10610491576101008083540402835291602001916104bc565b820191906000526020600020905b81548152906001019060200180831161049f57829003601f168201915b50505050508152602001600482015481526020016005820160009054906101000a900460ff161515151581526020016005820160019054906101000a900460ff1615151515815250509050919050565b60006001600083815260200190815260200160002090503373ffffffffffffffffffffffffffffffffffffffff168160000160009054906101000a900473ffffffffffffffffffffffffffffffffffffffff1673ffffffffffffffffffffffffffffffffffffffff16146105b5576040517f08c379a00000000000000000000000000000000000000000000000000000000081526004016105ac9061190b565b60405180910390fd5b8060050160009054906101000a900460ff16610606576040517f08c379a00000000000000000000000000000000000000000000000000000000081526004016105fd90611977565b60405180910390fd5b8060050160019054906101000a900460ff1615610658576040517f08c379a000000000000000000000000000000000000000000000000000000000815260040161064f906119e3565b60405180910390fd5b60018160050160016101000a81548160ff02191690831515021790555060008160010160009054906101000a900473ffffffffffffffffffffffffffffffffffffffff16905060006064600a84600201546106b39190611a32565b6106bd9190611aa3565b83600201546106cc9190611ad4565b90508173ffffffffffffffffffffffffffffffffffffffff1663a9059cbb33836040518363ffffffff1660e01b8152600401610709929190611b08565b6020604051808303816000875af1158015610728573d6000803e3d6000fd5b505050506040513d601f19601f8201168201806040525081019061074c9190611b5d565b61078b576040517f08c379a000000000000000000000000000000000000000000000000000000000815260040161078290611bd6565b60405180910390fd5b3373ffffffffffffffffffffffffffffffffffffffff16847f5ea886cf568f08980145397a09764b7ba697ab79d4f20866b2939251613624a960405160405180910390a350505050565b60008211610818576040517f08c379a000000000000000000000000000000000000000000000000000000000815260040161080f90611c42565b60405180910390fd5b600081511161085c576040517f08c379a000000000000000000000000000000000000000000000000000000000815260040161085390611cae565b60405180910390fd5b6000839050828173ffffffffffffffffffffffffffffffffffffffff166370a08231336040518263ffffffff1660e01b815260040161089b91906117bd565b602060405180830381865afa1580156108b8573d6000803e3d6000fd5b505050506040513d601f19601f820116820180604052508101906108dc9190611ce3565b101561091d576040517f08c379a000000000000000000000000000000000000000000000000000000000815260040161091490611d5c565b60405180910390fd5b828173ffffffffffffffffffffffffffffffffffffffff1663dd62ed3e33306040518363ffffffff1660e01b8152600401610959929190611d7c565b602060405180830381865afa158015610976573d6000803e3d6000fd5b505050506040513d601f19601f8201168201806040525081019061099a9190611ce3565b10156109db576040517f08c379a00000000000000000000000000000000000000000000000000000000081526004016109d290611df1565b60405180910390fd5b60008173ffffffffffffffffffffffffffffffffffffffff166323b872dd3330876040518463ffffffff1660e01b8152600401610a1a93929190611e11565b6020604051808303816000875af1158015610a39573d6000803e3d6000fd5b505050506040513d601f19601f82011682018060405250810190610a5d9190611b5d565b905080610a9f576040517f08c379a0000000000000000000000000000000000000000000000000000000008152600401610a9690611bd6565b60405180910390fd5b600060026000815480929190610ab490611e48565b9190505590506040518060e001604052803373ffffffffffffffffffffffffffffffffffffffff1681526020018773ffffffffffffffffffffffffffffffffffffffff168152602001868152602001858152602001428152602001600015158152602001600015158152506001600083815260200190815260200160002060008201518160000160006101000a81548173ffffffffffffffffffffffffffffffffffffffff021916908373ffffffffffffffffffffffffffffffffffffffff16021790555060208201518160010160006101000a81548173ffffffffffffffffffffffffffffffffffffffff021916908373ffffffffffffffffffffffffffffffffffffffff160217905550604082015181600201556060820151816003019081610bdf919061203c565b506080820151816004015560a08201518160050160006101000a81548160ff02191690831515021790555060c08201518160050160016101000a81548160ff0219169083151502179055509050503373ffffffffffffffffffffffffffffffffffffffff16817f1c78b7407dd0cebf51f951bb510d2b8891e41bfb720c6369f6dd5248f6495081888888604051610c789392919061210e565b60405180910390a3505050505050565b610c90611012565b610c9a6000611099565b565b60606000805b600254811015610d31578373ffffffffffffffffffffffffffffffffffffffff166001600083815260200190815260200160002060000160009054906101000a900473ffffffffffffffffffffffffffffffffffffffff1673ffffffffffffffffffffffffffffffffffffffff1603610d24578180610d2090611e48565b9250505b8080600101915050610ca2565b508067ffffffffffffffff811115610d4c57610d4b611525565b5b604051908082528060200260200182016040528015610d7a5781602001602082028036833780820191505090505b5091506000805b600254811015610e30578473ffffffffffffffffffffffffffffffffffffffff166001600083815260200190815260200160002060000160009054906101000a900473ffffffffffffffffffffffffffffffffffffffff1673ffffffffffffffffffffffffffffffffffffffff1603610e235780848381518110610e0857610e0761214c565b5b6020026020010181815250508180610e1f90611e48565b9250505b8080600101915050610d81565b505050919050565b60008060009054906101000a900473ffffffffffffffffffffffffffffffffffffffff16905090565b60025481565b610e6f611012565b6002548110610eb3576040517f08c379a0000000000000000000000000000000000000000000000000000000008152600401610eaa9061189f565b60405180910390fd5b6001600082815260200190815260200160002060050160009054906101000a900460ff1615610f17576040517f08c379a0000000000000000000000000000000000000000000000000000000008152600401610f0e906121c7565b60405180910390fd5b600180600083815260200190815260200160002060050160006101000a81548160ff0219169083151502179055503373ffffffffffffffffffffffffffffffffffffffff16817fbeac868bde93d44a2bf1168c7d9f4acfe463f8528102fa596cb8865572f2ab1760405160405180910390a350565b610f94611012565b600073ffffffffffffffffffffffffffffffffffffffff168173ffffffffffffffffffffffffffffffffffffffff16036110065760006040517f1e4fbdf7000000000000000000000000000000000000000000000000000000008152600401610ffd91906117bd565b60405180910390fd5b61100f81611099565b50565b61101a61115d565b73ffffffffffffffffffffffffffffffffffffffff16611038610e38565b73ffffffffffffffffffffffffffffffffffffffff16146110975761105b61115d565b6040517f118cdaa700000000000000000000000000000000000000000000000000000000815260040161108e91906117bd565b60405180910390fd5b565b60008060009054906101000a900473ffffffffffffffffffffffffffffffffffffffff169050816000806101000a81548173ffffffffffffffffffffffffffffffffffffffff021916908373ffffffffffffffffffffffffffffffffffffffff1602179055508173ffffffffffffffffffffffffffffffffffffffff168173ffffffffffffffffffffffffffffffffffffffff167f8be0079c531659141344cd1fd0a4f28419497f9722a3daafe3b4186f6b6457e060405160405180910390a35050565b600033905090565b6040518060e00160405280600073ffffffffffffffffffffffffffffffffffffffff168152602001600073ffffffffffffffffffffffffffffffffffffffff1681526020016000815260200160608152602001600081526020016000151581526020016000151581525090565b6000604051905090565b600080fd5b600080fd5b6000819050919050565b6111f9816111e6565b811461120457600080fd5b50565b600081359050611216816111f0565b92915050565b600060208284031215611232576112316111dc565b5b600061124084828501611207565b91505092915050565b600073ffffffffffffffffffffffffffffffffffffffff82169050919050565b600061127482611249565b9050919050565b61128481611269565b82525050565b611293816111e6565b82525050565b600081519050919050565b600082825260208201905092915050565b60005b838110156112d35780820151818401526020810190506112b8565b60008484015250505050565b6000601f19601f8301169050919050565b60006112fb82611299565b61130581856112a4565b93506113158185602086016112b5565b61131e816112df565b840191505092915050565b60008115159050919050565b61133e81611329565b82525050565b600060e082019050611359600083018a61127b565b611366602083018961127b565b611373604083018861128a565b818103606083015261138581876112f0565b9050611394608083018661128a565b6113a160a0830185611335565b6113ae60c0830184611335565b98975050505050505050565b6113c381611269565b82525050565b6113d2816111e6565b82525050565b600082825260208201905092915050565b60006113f482611299565b6113fe81856113d8565b935061140e8185602086016112b5565b611417816112df565b840191505092915050565b61142b81611329565b82525050565b600060e08301600083015161144960008601826113ba565b50602083015161145c60208601826113ba565b50604083015161146f60408601826113c9565b506060830151848203606086015261148782826113e9565b915050608083015161149c60808601826113c9565b5060a08301516114af60a0860182611422565b5060c08301516114c260c0860182611422565b508091505092915050565b600060208201905081810360008301526114e78184611431565b905092915050565b6114f881611269565b811461150357600080fd5b50565b600081359050611515816114ef565b92915050565b600080fd5b600080fd5b7f4e487b7100000000000000000000000000000000000000000000000000000000600052604160045260246000fd5b61155d826112df565b810181811067ffffffffffffffff8211171561157c5761157b611525565b5b80604052505050565b600061158f6111d2565b905061159b8282611554565b919050565b600067ffffffffffffffff8211156115bb576115ba611525565b5b6115c4826112df565b9050602081019050919050565b82818337600083830152505050565b60006115f36115ee846115a0565b611585565b90508281526020810184848401111561160f5761160e611520565b5b61161a8482856115d1565b509392505050565b600082601f8301126116375761163661151b565b5b81356116478482602086016115e0565b91505092915050565b600080600060608486031215611669576116686111dc565b5b600061167786828701611506565b935050602061168886828701611207565b925050604084013567ffffffffffffffff8111156116a9576116a86111e1565b5b6116b586828701611622565b9150509250925092565b6000602082840312156116d5576116d46111dc565b5b60006116e384828501611506565b91505092915050565b600081519050919050565b600082825260208201905092915050565b6000819050602082019050919050565b600061172483836113c9565b60208301905092915050565b6000602082019050919050565b6000611748826116ec565b61175281856116f7565b935061175d83611708565b8060005b8381101561178e5781516117758882611718565b975061178083611730565b925050600181019050611761565b5085935050505092915050565b600060208201905081810360008301526117b5818461173d565b905092915050565b60006020820190506117d2600083018461127b565b92915050565b60006020820190506117ed600083018461128a565b92915050565b7f4e487b7100000000000000000000000000000000000000000000000000000000600052602260045260246000fd5b6000600282049050600182168061183a57607f821691505b60208210810361184d5761184c6117f3565b5b50919050565b7f42657420646f6573206e6f742065786973740000000000000000000000000000600082015250565b60006118896012836112a4565b915061189482611853565b602082019050919050565b600060208201905081810360008301526118b88161187c565b9050919050565b7f4e6f742074686520626574746f72000000000000000000000000000000000000600082015250565b60006118f5600e836112a4565b9150611900826118bf565b602082019050919050565b60006020820190508181036000830152611924816118e8565b9050919050565b7f426574206e6f7420617474657374656420796574000000000000000000000000600082015250565b60006119616014836112a4565b915061196c8261192b565b602082019050919050565b6000602082019050818103600083015261199081611954565b9050919050565b7f42657420616c726561647920636c61696d656400000000000000000000000000600082015250565b60006119cd6013836112a4565b91506119d882611997565b602082019050919050565b600060208201905081810360008301526119fc816119c0565b9050919050565b7f4e487b7100000000000000000000000000000000000000000000000000000000600052601160045260246000fd5b6000611a3d826111e6565b9150611a48836111e6565b9250828202611a56816111e6565b91508282048414831517611a6d57611a6c611a03565b5b5092915050565b7f4e487b7100000000000000000000000000000000000000000000000000000000600052601260045260246000fd5b6000611aae826111e6565b9150611ab9836111e6565b925082611ac957611ac8611a74565b5b828204905092915050565b6000611adf826111e6565b9150611aea836111e6565b9250828201905080821115611b0257611b01611a03565b5b92915050565b6000604082019050611b1d600083018561127b565b611b2a602083018461128a565b9392505050565b611b3a81611329565b8114611b4557600080fd5b50565b600081519050611b5781611b31565b92915050565b600060208284031215611b7357611b726111dc565b5b6000611b8184828501611b48565b91505092915050565b7f546f6b656e207472616e73666572206661696c65640000000000000000000000600082015250565b6000611bc06015836112a4565b9150611bcb82611b8a565b602082019050919050565b60006020820190508181036000830152611bef81611bb3565b9050919050565b7f416d6f756e74206d7573742062652067726561746572207468616e2030000000600082015250565b6000611c2c601d836112a4565b9150611c3782611bf6565b602082019050919050565b60006020820190508181036000830152611c5b81611c1f565b9050919050565b7f4465736372697074696f6e2063616e6e6f7420626520656d7074790000000000600082015250565b6000611c98601b836112a4565b9150611ca382611c62565b602082019050919050565b60006020820190508181036000830152611cc781611c8b565b9050919050565b600081519050611cdd816111f0565b92915050565b600060208284031215611cf957611cf86111dc565b5b6000611d0784828501611cce565b91505092915050565b7f496e73756666696369656e7420746f6b656e2062616c616e6365000000000000600082015250565b6000611d46601a836112a4565b9150611d5182611d10565b602082019050919050565b60006020820190508181036000830152611d7581611d39565b9050919050565b6000604082019050611d91600083018561127b565b611d9e602083018461127b565b9392505050565b7f496e73756666696369656e7420616c6c6f77616e636500000000000000000000600082015250565b6000611ddb6016836112a4565b9150611de682611da5565b602082019050919050565b60006020820190508181036000830152611e0a81611dce565b9050919050565b6000606082019050611e26600083018661127b565b611e33602083018561127b565b611e40604083018461128a565b949350505050565b6000611e53826111e6565b91507fffffffffffffffffffffffffffffffffffffffffffffffffffffffffffffffff8203611e8557611e84611a03565b5b600182019050919050565b60008190508160005260206000209050919050565b60006020601f8301049050919050565b600082821b905092915050565b600060088302611ef27fffffffffffffffffffffffffffffffffffffffffffffffffffffffffffffffff82611eb5565b611efc8683611eb5565b95508019841693508086168417925050509392505050565b6000819050919050565b6000611f39611f34611f2f846111e6565b611f14565b6111e6565b9050919050565b6000819050919050565b611f5383611f1e565b611f67611f5f82611f40565b848454611ec2565b825550505050565b600090565b611f7c611f6f565b611f87818484611f4a565b505050565b5b81811015611fab57611fa0600082611f74565b600181019050611f8d565b5050565b601f821115611ff057611fc181611e90565b611fca84611ea5565b81016020851015611fd9578190505b611fed611fe585611ea5565b830182611f8c565b50505b505050565b600082821c905092915050565b600061201360001984600802611ff5565b1980831691505092915050565b600061202c8383612002565b9150826002028217905092915050565b61204582611299565b67ffffffffffffffff81111561205e5761205d611525565b5b6120688254611822565b612073828285611faf565b600060209050601f8311600181146120a65760008415612094578287015190505b61209e8582612020565b865550612106565b601f1984166120b486611e90565b60005b828110156120dc578489015182556001820191506020850194506020810190506120b7565b868310156120f957848901516120f5601f891682612002565b8355505b6001600288020188555050505b505050505050565b6000606082019050612123600083018661127b565b612130602083018561128a565b818103604083015261214281846112f0565b9050949350505050565b7f4e487b7100000000000000000000000000000000000000000000000000000000600052603260045260246000fd5b7f42657420616c7265616479206174746573746564000000000000000000000000600082015250565b60006121b16014836112a4565b91506121bc8261217b565b602082019050919050565b600060208201905081810360008301526121e0816121a4565b905091905056fea264697066735822122058d88b4ec3e2ef1dc449e12532dbdb7c0d0e6d76e03c9a25bb39db3f18cecbcd64736f6c634300081b0033",
    "linkReferences": {},
    "deployedLinkReferences": {}
}